:03000000020100FA
:0300030031403257
:100030000E040404040C041E10080402120C0E0129
:10004000010602010E0202021F0A04020E01010152
:100050000E080F0C12121C10100E08081C080402C7
:100060001E0E11110E11110E1E01010F11110E0E97
:0600700011111111110E27
:10010000C2AFC28E758911758841D2AFD2A8D28C88
:100110007C00780779017A00EC75F007A42A90A09A
:1001200000F0900030930A908000F0E9F490800293
:10013000F0F423F9758CFE308DFDC28DD8DA80D2B3
:10014000FFD28E308FFDEC6409600280027CFF0CD0
:02015000EF229C
:00000001FF
