:03000000020030CB
:03001B0011ED32B2
:10003000C2AFC28E758911758841D2AFD2ABD28E54
:10004000909006E0FA11E4600611D411E47020905B
:100050009005E0FA11E4600611D411E4703090903C
:1000600003E0FA11E460D911D411E4704080D1EAC0
:10007000B4FE047F0611CCB4FD047F6611CCB4FB42
:10008000047F0711CCB4F7C77F7111CC80B2EAB4FA
:10009000FE047F5B11CCB4FD047F6D11CCB4FB0476
:1000A0007F7F11CCB4F7A87F3F11CC8093EAB4FED8
:1000B000047F4F11CCB4FD047F7D11CCB4FB047FD1
:1000C0006F11CCB4F7247F7911CC0140F9EF90A0E7
:1000D00000F0E922758CA0758A00D28C308DFDC2AB
:1000E0008CC28D2244F0F422801802004FFDEE6491
:1000F0000470027E000EEE908002F0908001EFF01E
:02010000ED22EE
:00000001FF
