:03000000020031CA
:03001B003103327C
:1000300010C2AFC28E758911758841D2AFD2ABD2D2
:100040008E909006E0FA11FA600611EA11FA70201B
:10005000909005E0FA11FA600611EA11FA703690F4
:100060009003E0FA11FA60D911EA11FA704D80D1CB
:10007000E490003093FBEAB4FE047F0611E2B4FD85
:10008000047F6611E2B4FB047F0711E2B4F7C17F7D
:100090007111E280ACE49000309303FBEAB4FE04FB
:1000A0007F5B11E2B4FD047F6D11E2B4FB047F7F3E
:1000B00011E2B4F79B7F3F11E28086E49000309319
:1000C0000303FBEAB4FE047F4F11E2B4FD047F7D1D
:1000D00011E2B4FB047F6F11E2B4F7247F7911E2DF
:1000E0000141F9EF90A000F0E922758CA0758A001B
:1000F000D28C308DFDC28CC28D2244F0F422801847
:10010000020050FDEE640470027E000EEE9080024C
:08011000F0908001EFF0ED22F8
:00000001FF
